:100000000C94EC040C9433050C9433050C943305D8
:100010000C9433050C9433050C9433050C94330580
:100020000C9433050C9433050C94231F0C94F61F89
:100030000C948F160C9433050C9433050C943305F3
:100040000C9433050C9433050C9433050C94330550
:100050000C9433050C94F7160C9433050C9433056B
:100060000C9433050C9433050C9433050C94330530
:100070000C9433050C9433050C9433050C94330520
:100080000C9433050C9433050C9433050C94330510
:100090000C9433050C9433050C9433050C94330500
:1000A0000C9433050C9433050C9433055F00600009
:1000B0006100290014001A000800150017001C0038
:1000C00018000C00120013002A005C005D005E00A6
:1000D0002B0004001600070009000A000B000D00A9
:1000E0000E000F003300340059005A005B00E1009D
:1000F0001D001B000600190005001100100036004D
:10010000370038002800620063002800E000E200A9
:10011000E3007600025100002C0001515000520013
:1001200051004F0001000100010035001E001F00BA
:1001300020002100220023002400250026002700A3
:100140004C0001000100010001000100010001005C
:100150000100010001002D002E002F0030003100B1
:100160000100010001000100440045006800690031
:100170006A006B006C006D006E006F0001000100F2
:100180000100010001000100010039000100000030
:100190000100010001000100010001000100010057
:1001A000010035021E021F02200221022202230248
:1001B00024022502260227024C0001000100010052
:1001C00001000100010001000100010001002D02F9
:1001D0002E022F0230023102010001000100010055
:1001E0003A003B003C003D003E003F004000410023
:1001F0004200430001000070010001000100010005
:100200000100390001000000010001004A004E0019
:100210004B004D0001000100010001000100010040
:1002200001000100010001000100010001000100C6
:1002300001000100010001000100010001000100B6
:1002400001000100010001000100010001000100A6
:100250000100010001000100010001000100010096
:100260000100010001000100010001000100010086
:100270000100010001000100010001000100000077
:100280000100010001000100010001000100010066
:100290000100010001000100010001000100010056
:1002A0000100010001000100010001000100010046
:1002B0000100010001000100010001000100010036
:1002C0000100010001000100010001000100010026
:1002D0000100010001000100010001000100010016
:1002E0000100010001000100010001000100010006
:1002F00001000100010000000100010001000100F7
:1003000001000100010001000100010001000100E5
:1003100001000100010001000100010001000100D5
:1003200001000100010001000100010001000100C5
:1003300001000100010001000100010001000100B5
:1003400001000100010001000100010001000100A5
:100350000100010001000100010001000100010095
:100360000100010001000100010001000100000086
:100370000100010001000100010001000100010075
:100380000100010001000100010001000100010065
:100390000100010001000100010001000100010055
:1003A0000100010001000100010001000100010045
:1003B0000100010001000100010001000100010035
:1003C0000100010001000100010001000100010025
:1003D0000100010001000100010001000100010015
:1003E0000100010001000000010001000100010006
:1003F00001000100010001000100010001000100F5
:1004000001000100010001000100010001000100E4
:1004100001000100010001000100010001000100D4
:1004200001000100010001000100010001000100C4
:1004300001000100010001000100010001000100B4
:1004400001000100010001000100010001000100A4
:100450000100010001000100010001000100000095
:100460000100010001000100010001000100010084
:100470000100010001000100010001000100010074
:100480000100010001000100010001000100010064
:100490000100010001000100010001000100010054
:1004A0000100010001000100010001000100010044
:1004B0000100010001000100010001000100010034
:1004C0000100010001000100010001000100010024
:1004D0000100010001000000010001000100010015
:1004E0000100010001000100010001000100010004
:1004F00001000100010001000100010001000100F4
:1005000001000100010001000100010001000100E3
:1005100001000100010001000100010001000100D3
:1005200001000100010001000100010001000100C3
:1005300001000100010001000100010001000100B3
:1005400001000100010001000100010001000000A4
:100550000100010001000100010001000100010093
:100560000100010001000100010001000100010083
:100570000100010001000100010001000100010073
:100580000100010001000100010001000100010063
:100590000100010001000100010001000100010053
:1005A0000100010001000100010001000100010043
:1005B0000100010001000100010001000100010033
:1005C0000100010001000000010001000100010024
:1005D0000100010001000100010001000100010013
:1005E0000100010001000100010001000100010003
:1005F00001000100010001000100010001000100F3
:1006000001000100010001000100010001000100E2
:1006100001000100010001000100010001000100D2
:1006200001000100010001000100010001000100C2
:1006300001000100010001000100010001000000B3
:1006400001000100010001000100010001000100A2
:100650000100010001000100010001000100010092
:100660000100010001000100010001000100010082
:100670000100010001000100010001000100010072
:100680000100010001000100010001000100010062
:100690000100010001000100010001000100010052
:1006A0000100010001000100010001000100010042
:1006B0000100010001000000010001000100010033
:1006C0000100010001000100010001000100010022
:1006D0000100010001000100010001000100010012
:1006E0000100010001000100010001000100010002
:1006F00001000100010001000100010001000100F2
:1007000001000100010001000100010001000100E1
:1007100001000100010001000100010001000100D1
:1007200001000100010001000100010001000000C2
:1007300001000100010001000100010001000100B1
:1007400001000100010001000100010001000100A1
:100750000100010001000100010001000100010091
:100760000100010001000100010001000100010081
:100770000100010001000100010001000100010071
:100780000100010001000100010001000100010061
:100790000100010001000100010001000100010051
:1007A0000100010001000000010001000100010042
:1007B0000100010001000100010001000100010031
:1007C0000100010001000100010001000100010021
:1007D0000100010001000100010001000100010011
:1007E0000100010001000100010001000100010001
:1007F00001000100010001000100010001000100F1
:1008000001000100010001000100010001000100E0
:1008100001000100010001000100010001000000D1
:1008200001000100010001000100010012036B0042
:100830006500790062006F006100720064000000D2
:10084000160371006D006B006200750069006C009A
:1008500064006500720000000403090409026D00D1
:10086000040100A0FA0904000001030101000921AC
:10087000110100012240000705810308000A090454
:1008800001000103010200092111010001224D00B4
:100890000705820308000A090402000103000000A2
:1008A0000921110100012236000705830308000A0F
:1008B00009040300010300000009211101000122C5
:1008C0003900070584032000011201100100000017
:1008D00008EDFE606001000102000105010906A1AA
:1008E00001050719E029E715002501950875018123
:1008F00002050819012905950575019102950175F3
:100900000391010507190029F71500250195F875D0
:10091000018102C005010980A1018502160100269E
:1009200003001A81002A8300751095018100C0051B
:100930000C0901A1018503160100269C021A010081
:100940002A9C02751095018100C005010902A101D0
:100950000901A100050919012905150025019505C1
:100960007501810295017503810105010930093185
:100970001581257F95027508810609381581257F27
:10098000950175088106050C0A38021581257F95A9
:100990000175088106C0C005010906A101050719F6
:1009A000E029E7150025019508750181029501757B
:1009B0000881010508190129059505750191029520
:1009C00001750391010507190029FF150026FF0095
:1009D000950675088100C00011241FBECFEFDAE034
:1009E000DEBFCDBF04B603FE27C080913C029091CC
:1009F0003D02A0913E02B0913F028730904BA7404C
:100A0000B04BD1F410923C0210923D0210923E0283
:100A100010923F0214BE84B7877F84BF0FB6F8944C
:100A2000A8958091600088618093600010926000BA
:100A30000FBEE0E0F8E3099511E0A0E0B1E0E4E7E3
:100A4000F6E402C005900D92AA33B107D9F722E06F
:100A5000AAE3B1E001C01D92AC33B207E1F70E94F6
:100A6000721C0C9438230C94000090E080E00895F0
:100A70000895089581E00895089581E008950C9403
:100A80003A050E94080F2FEF84E39CE0215080403C
:100A90009040E1F700C000000C941C17FF920F93E8
:100AA0001F93CF93DF938C01FC01C081D181809192
:100AB0006E0181113FC082818823B9F1CE010E946D
:100AC0006F14F82E682FCE010E941514BE018F2DD1
:100AD0000E949506EC01B8010E943F05882309F4A5
:100AE0004AC0B801CE010E94A508882309F443C07A
:100AF000C531F0E7DF0718F5C23080E7D80708F006
:100B00004BC0C115E0E7DE0789F1C130D047D1F114
:100B100081E080933C0180933D01C801DF91CF913A
:100B20001F910F91FF900C943D05CE010E9444143B
:100B3000F82ECCCFCE010E946F14BE01C9CFCC33AA
:100B400080E7D80709F4ACC0CD33D04709F7F801E6
:100B50008281882309F4CBC010923D010E94C11606
:100B600090933B0180933A0180E2A7C0F801828113
:100B700081110E94410580E0DF91CF911F910F917B
:100B8000FF900895F80182818823A9F38091FC01E8
:100B900081608093FC01EFCFF8018281882309F402
:100BA000BCCF0E942016811102C00E9406160E942E
:100BB0003D1690E090932E0280932D02FE01E350AB
:100BC000F04780912D028160E231F105C8F4E551D2
:100BD000FA4F0C94E822FD0509060D0611061506CC
:100BE00019061D062106250629062D06310635069D
:100BF00039063D0641064506490680912D02826070
:100C000080932D0280912D020E9441160E94080FB0
:100C1000B2CF80912D028460F3CF80912D02886045
:100C2000EFCF80912D028061EBCF80912D02806209
:100C3000E7CF80912D028064E3CF80912D02806800
:100C4000DFCF80912D028460EACF80912D028E7FCC
:100C5000D7CF80912D028D7FD3CF80912D028B7FB6
:100C6000CFCF80912D02877FCBCF80912D028F7EB9
:100C7000C7CF80912D028F7DC3CF80912D028F7BB6
:100C8000BFCF80912D028F77BBCF80912D028B7FBC
:100C9000EACF90912D02892F97FB87F98058B0CF2A
:100CA000F8018281882361F010923C010E94C116F4
:100CB00090933B0180933A0182E00E94920C5BCFBB
:100CC00080913C0181110FC080913A0190913B01CC
:100CD0000E94CD16883C910530F486E20E94670B95
:100CE00086E20E94430C82E00E94990C44CF8091DE
:100CF0003D0181110FC080913A0190913B010E940A
:100D0000CD16883C910530F487E20E94670B87E29C
:100D10000E94430C80E2E8CF0C94F4080C94F6088F
:100D20000C943C050C9490060895972F70E02FE0EA
:100D3000929F600D711D1124FB019CE3899FE00DC2
:100D4000F11D1124EE0FFF1FE455FF4F8591949183
:100D50000895FC01EE0FFF1FE45DF74F859194911C
:100D600008950E9495060E942408811520E49207A8
:100D700008F08DC0811540E3940708F0E8C0803E7C
:100D8000910508F071C0803C910508F0CCC0883A0C
:100D9000910580F4853A910508F0CAC0813091052B
:100DA00009F46EC020F08430910508F069C090E02D
:100DB00080E008958D3B9105D0F7883A910509F4BC
:100DC00004C1893A910509F403C18A3A910509F4ED
:100DD00002C18B3A910509F401C18C3A910509F4DD
:100DE00000C18B3B910509F4FFC08C3B910509F4D0
:100DF000FEC08D3A910509F4FDC0803B910509F4D0
:100E0000FCC08E3A910509F4FBC08F3A910509F4B4
:100E1000FAC0813B910509F4F9C0823B910509F4C0
:100E2000F8C0833B910509F4F7C0843B910509F4B0
:100E3000F6C0853B910509F4F5C0863B910509F4A0
:100E4000F4C0873B910509F4F3C0883B910509F490
:100E5000F2C0893B910509F4F1C08A3B910509F480
:100E6000F0C080E094E408958F3F910509F048F4C4
:100E7000803F910508F067C0883E910508F097CF44
:100E80000895811520E2920708F05FC0089581154A
:100E900043E5940760F5811522E5920708F062C0EA
:100EA000811541E5940708F058C0811520E59207A7
:100EB00008F450C09C0154E0369527955A95E1F707
:100EC000922F9370482F437021E030E002C0220F30
:100ED000331F4A95E2F73C68392B869586958370D7
:100EE00040E2849FC0011124822B932B0895811529
:100EF00045E5940750F4811524E5920708F446C0AF
:100F0000982F8827846F906A0895811546E5940785
:100F100008F450C09C0130569F702115304108F0F4
:100F200046CF90620895805C91090E94A9060895B9
:100F3000853A910509F443C0863A910509F042C00B
:100F400082E890E40895906508959F70EECF992708
:100F5000906C08959F70906A0895982F8827816FEC
:100F6000906A0895AC014370552721E030E002C03B
:100F7000220F331F4A95E2F78695869540E2849FBB
:100F8000C0011124822B932B9C680895AC014370FF
:100F9000552721E030E002C0220F331F4A95E2F7C7
:100FA0008695869540E2849FC0011124822B932B65
:100FB0009A680895982F882788279F71B2CF81E873
:100FC00090E4089583E890E4089582EE94E408950F
:100FD00089EE94E408958AEE94E4089585EB94E410
:100FE000089586EB94E4089583EB94E4089584EBEC
:100FF00094E4089587EB94E408958CEC94E40895C8
:101000008DEC94E4089583E895E408958AE895E4E6
:10101000089582E995E4089584E995E4089581E2CC
:1010200096E4089583E296E4089584E296E40895B0
:1010300085E296E4089586E296E4089587E296E4D0
:1010400008958AE296E41CCF8238910549F1B0F404
:101050008133910509F45CC048F48932910509F4A3
:1010600052C08A32910509F458C00895853391051C
:1010700009F444C08933910599F00895833E9105A0
:1010800031F138F4803E910591F0823E9105B1F046
:101090000895863E910511F1873E910541F108952D
:1010A00020912D022370C9F080EE90E008952091E8
:1010B0002D0220FF12C089E390E0089520912D02B7
:1010C00022FF0BC024FF2EC090E080E00895209105
:1010D0002D0222FD2AC024FDF7CF089520912D0274
:1010E00023FFFBCF24FDF0CF87EE90E00895209101
:1010F0002D0223FFF0CF86EE90E0089520912D027F
:1011000025FD16C0089520912D0225FD14C00895D7
:1011100020912D0226FD12C0089520912D0226FD5A
:1011200010C0089583EE90E0089582EE90E0089557
:1011300089E290E0089585E390E008958AE290E0E6
:10114000089581E390E0C9CF08950F931F93CF9343
:101150008C01FB018281811106C0C1E08C2FCF91EF
:101160001F910F910895C0914B01C11125C0053108
:10117000104799F70E94A40881E080934B010E94D8
:10118000C11690934A018093490110923E0110923A
:10119000400110923F0110924201109241011092C1
:1011A00044011092430110924601109245011092A1
:1011B000480110924701D2CF8091490190914A0194
:1011C0000E94CD16883C910540F680913E01E82FA3
:1011D000F0E0EE0FFF1FE15CFE4F118300838F5F95
:1011E00080933E01C0E0BACF0C9438050C943905C9
:1011F000CF93DF9385B7806885BF85B7806885BF4B
:10120000A2E2B1E046E251E0C1E0D0E08D91E82FEA
:10121000E295EF70F0E061A18F709E0101C0220F96
:101220008A95EAF7922F9095962391A382A1822B1B
:1012300082A34A175B0751F7A3E1B1E042E251E014
:10124000C1E0D0E08D91E82FE295EF70F0E061A170
:101250008F709E0101C0220F8A95EAF7922F909518
:10126000962391A382A1822B82A34A175B0751F791
:10127000109255011092540110924D0110924C01A0
:10128000109257011092560110924F0110924E0188
:101290001092590110925801109251011092500170
:1012A00010925B0110925A01109253011092520158
:1012B000DF91CF910C948C064F925F927F928F9228
:1012C0009F92AF92BF92CF92DF92EF92FF920F93D5
:1012D0001F93CF93DF93CCE4D1E002E211E096E2DA
:1012E000A92E91E0B92EEE24E394F12C9924939445
:1012F000C880D98019821882D8018D918D01E82F7C
:10130000E295EF70F0E091A18F70970101C0220F7C
:101310008A95EAF7892F822B81A382A1822E80945D
:10132000882182A3B0EABA95F1F783E1482E81E0E3
:10133000582E90E080E0D2017D912D01472F4295FB
:101340004F7050E0DA0190967C90488159817F700F
:10135000D70102C0AA0FBB1F7A95E2F7BD01672132
:1013600009F068C0B701082E02C0660F771F0A9403
:10137000E2F7462B572B5983488301968F3091050E
:10138000D1F681A1882281A282A1282B22A3888163
:101390009981C816D90641F090925C010E94C1164D
:1013A00090935E0180935D012296A016B10609F02C
:1013B0009FCF80915C01882351F180915D019091D4
:1013C0005E010E94CD16069710F180914C0190911C
:1013D0004D01909355018093540180914E0190915D
:1013E0004F01909357018093560180915001909145
:1013F000510190935901809358018091520190912D
:10140000530190935B0180935A0110925C010E94FA
:101410008E0681E0DF91CF911F910F91FF90EF90A9
:10142000DF90CF90BF90AF909F908F907F905F9014
:101430004F90089570E060E09CCFE82FF0E0EE0F51
:10144000FF1FEC5AFE4F808191810895089590937B
:101450006401809363010895E0916301F091640158
:10146000309721F00190F081E02D099480E00895FB
:10147000E0916301F0916401309721F00280F381E3
:10148000E02D09940895E0916301F0916401309793
:1014900021F00480F581E02D0994089520916101E7
:1014A000309162012817390771F09093620180939F
:1014B0006101E0916301F0916401309721F00680B1
:1014C000F781E02D0994089520915F01309160012A
:1014D0002817390771F09093600180935F01E091C4
:1014E0006301F0916401309721F00084F185E02DD3
:1014F0000994089508950C947A0A0E94B8160E94DF
:10150000F8080C9489175F926F927F928F929F9246
:10151000AF92BF92CF92DF92EF92FF920F931F9301
:10152000CF93DF93CDB7DEB72A970FB6F894DEBF1F
:101530000FBECDBF0E945C0996E6A92E91E0B92EA0
:1015400010E000E088248394912C502E802F0E947C
:101550001D0A7C01F501C190D1905F01C816D90622
:1015600009F45EC08091FC0181FD0E94260A90E092
:1015700080E0CE24DF243401082E02C0660C771CE4
:101580000A94E2F7960126213721232B09F443C060
:101590008E835F82E620F72081E0EF2809F480E067
:1015A00088870E94C1168160782F9A8789874E812B
:1015B0005F8168858A850E943D0B000F111FF8012D
:1015C000EA59FE4F80819181682679267182608276
:1015D0000E940C1A0E942C0A909165018917B9F19A
:1015E0000E942C0A809365012A960FB6F894DEBFFC
:1015F0000FBECDBFDF91CF911F910F91FF90EF9064
:10160000DF90CF90BF90AF909F908F907F906F9022
:101610005F900C94920601968F30910509F0ABCF44
:101620000F5F1F4F0430110509F08FCF8FEF8983B3
:101630008A831B820E94C1168160782F9D838C83D0
:1016400049815A816B818D810E943D0BC1CF2A96C1
:101650000FB6F894DEBF0FBECDBFDF91CF911F91C3
:101660000F91FF90EF90DF90CF90BF90AF909F9041
:101670008F907F906F905F900895CF93DF93CDB759
:10168000DEB72B970FB6F894DEBF0FBECDBF4F83EA
:10169000588769877A878B871E821D8285E0FE01C5
:1016A0003796DE01119601900D928A95E1F74981F6
:1016B0005A816B817C818D819E812B960FB6F89427
:1016C000DEBF0FBECDBFDF91CF910C94BA1188233E
:1016D00009F4D8C0823871F40E942C0A81FDD2C06E
:1016E00089E30E940F150E94D71589E30E944C15CB
:1016F0000C94D715833859F40E942C0A80FDC2C07F
:1017000083E50E940F150E94D71583E5EFCF84383B
:1017100059F40E942C0A82FDB5C087E40E940F157F
:101720000E94D71587E4E2CF9CEF980F913A18F406
:101730000E940F15DDCF90E2980F983050F487701B
:1017400091E001C0990F8A95EAF7892F0E948E15C2
:10175000CFCF9BE5980F933070F4853A31F0863AFD
:1017600039F083E890E00C944E0A81E890E0FBCFDA
:1017700082E890E0F8CF98E5980F953108F082C0A4
:10178000883A09F440C0893A09F440C08A3A09F419
:1017900040C08B3A09F440C08C3A09F440C08B3BFE
:1017A00009F440C08C3B09F440C08D3A09F440C0B4
:1017B000803B09F440C08E3A09F440C08F3A09F4E6
:1017C00040C0813B09F440C0823B09F440C0833BE8
:1017D00009F440C0843B09F440C0853B09F440C093
:1017E000863B09F440C0873B09F440C0883B09F4BC
:1017F00040C0893B09F440C08A3B09F440C090E0F6
:1018000080E00C94640A82EE90E0FBCF89EE90E0D9
:10181000F8CF8AEE90E0F5CF85EB90E0F2CF86EB43
:1018200090E0EFCF83EB90E0ECCF84EB90E0E9CF5A
:1018300087EB90E0E6CF8CEC90E0E3CF8DEC90E08E
:10184000E0CF83E891E0DDCF8AE891E0DACF82E96A
:1018500091E0D7CF84E991E0D4CF81E292E0D1CF7B
:1018600083E292E0CECF84E292E0CBCF85E292E0B9
:10187000C8CF86E292E0C5CF87E292E0C2CF8AE28B
:1018800092E0BFCF0895882309F44BC0823871F4E9
:101890000E942C0A81FF45C089E30E940F150E9417
:1018A000D71589E30E944C150C94D715833859F449
:1018B0000E942C0A80FF35C083E50E940F150E940C
:1018C000D71583E5EFCF843859F40E942C0A82FFA4
:1018D00028C087E40E940F150E94D71587E4E2CF45
:1018E0009CEF980F913AF0F290E2980F983050F4F4
:1018F000877091E001C0990F8A95EAF7892F0E94BD
:101900009415D2CF9BE5980F933020F490E080E0BF
:101910000C944E0A885A853120F490E080E00C94B3
:10192000640A0895882321F00E948E150C94D7151F
:101930000895882321F00E9494150C94D7150895DA
:101940008F929F92AF92BF92DF92EF92FF920F938E
:101950001F93CF93DF937C01D62FC72FFC01058106
:1019600002950F70128111110E94AD150E94081589
:10197000D82E882371F0112321F180E28D0F883059
:1019800000F182E00E94F2140E94081591E0D82E26
:10199000D926EC2FE295EF70F0E0EF52F34F0C9464
:1019A000E822E30CE30C330D330D750D910D100D92
:1019B000100D9C0D100D340E340EA70E100D100DD1
:1019C000B00ED12CE6CF0C2F0F70C07F11F0029516
:1019D000007F1123A9F0002359F080E28D0F883099
:1019E00010F0D11109C0802F0E948E150E94D715CA
:1019F0008D2F0E94670B14C0802F0E949F15F6CF79
:101A00008D2F0E94430C002359F080E28D0F883007
:101A100010F0D11124C0802F0E9494150E94D71578
:101A2000DD2009F4A4C10E94E51480FDA0C1F701E6
:101A300012820E94DF140E945913C7010E94C30E34
:101A40000E94DF14DF91CF911F910F91FF90EF90D3
:101A5000DF90BF90AF909F908F900C947A13802F5F
:101A60000E94A515DBCFFC2FFF70BF2EC07FC032B8
:101A700019F0B29480EFB822DD2369F0D13029F15A
:101A8000112369F1002359F0F701858180FFB0CF60
:101A90008F70858304C0112361F0011104C08B2D68
:101AA0000E94920CBDCF8B2D0130D1F70E94C11541
:101AB000B7CF011106C00E94C4158B2D0E94990C4E
:101AC000AFCF013009F4ACCFF6CF112321F00630AF
:101AD00008F0A6CFE4CF053008F0A2CFEECF002368
:101AE00061F38D2F0E94430C9BCF8C2F869586959A
:101AF000837069F0813009F093CF8D2F9C2F937004
:101B0000111102C090E080E00E94640A89CF8D2FFD
:101B10009C2F9370111102C090E080E00E944E0A49
:101B20007FCF8D2F112329F00E9415190E94011AD1
:101B300077CF0E947D19FACF8C2F837009F047C0B0
:101B400011116ECF2D2F229526952770220F220F6F
:101B50006D2F6F70862E912CB12CA12C022E04C0FB
:101B6000880C991CAA1CBB1C0A94D2F760E070E098
:101B7000CB01D4FF0FC06FE070E080E090E004C0C4
:101B8000660F771F881F991F2A95D2F76095709569
:101B900080959095C695C695C370C23051F080F47B
:101BA000682979298A299B29C13071F00E94021382
:101BB00037CF682979298A299B290E941E1330CFA3
:101BC0000E940213C501B4010E94E61229CF869536
:101BD000112311F08C2F8170882309F421CF2D2F30
:101BE000229526952770220F220F6D2F6F70862E5B
:101BF000912CB12CA12C022E04C0880C991CAA1C7B
:101C0000BB1C0A94D2F760E070E0CB01D4FF0FC098
:101C10006FE070E080E090E004C0660F771F881FDF
:101C2000991F2A95D2F76095709580959095C695E5
:101C3000C695C370C23051F080F4682979298A2989
:101C40009B29C13071F00E94DC13EACE6829792902
:101C50008A299B290E94F813E3CE0E94DC13C50158
:101C6000B4010E94C013DCCEE0E2ED0FE53108F0D4
:101C700062C0F0E0E25CF14F0C94E822530E530E88
:101C8000530E530E530E530E530E530E530E530E4C
:101C9000530E530E530E530E530E530E600E6E0E14
:101CA000750E7C0E860EDF708C2F8F71112321F044
:101CB0000E9459138D2FF4CE0E947A138D2FFECEE1
:101CC000112341F0053008F0ABCE8C2F8F710E94AC
:101CD0009F13A6CE063008F0A3CEF7CF8C2F8F71BE
:101CE000112339F00E9459139BCE8C2F8F71112331
:101CF000C9F30E947A1394CE112329F08C2F8F718F
:101D00000E9444138DCE0E943A138ACE112349F0CB
:101D1000CF718C2F0E94591363E08C2F0E94E9141D
:101D20007FCE81E00E94F214023008F479CE82E086
:101D30000E94F21475CE112329F0011159CE8C2F77
:101D40008F71D0CF0111CDCE8C2F8F71D2CF4C2F70
:101D50004F706D2FC7010E9435050E94631260CE3F
:101D60004C2F4F706D2FC7010E94940659CEDF9102
:101D7000CF911F910F91FF90EF90DF90BF90AF90A8
:101D80009F908F9008950F931F93CF93DF93EC0153
:101D9000988189812B813C81232B39F08F3F19F465
:101DA00081E09F3F19F080E001C081E080FD17C015
:101DB000CE010E944E05882391F0688179818A8145
:101DC0000E94BB148C010E9414140E94DB12B80103
:101DD000CE01DF91CF911F910F910C94A00CDF9158
:101DE000CF911F910F9108950E94AD150E94BE15CD
:101DF0000E9480150E94D7150E94AE1A0E94011AF7
:101E000090E080E00E944E0A90E080E00C94640A2A
:101E10000E949C150C94F40E0E94B114E92FE295D7
:101E2000EF70E250EE30E0F4F0E0E75EF04F0C943B
:101E3000E822270F270F300F300F320F300F300FEF
:101E4000300F270F270F370F300F300F370F803F1E
:101E500019F020F4803E20F481E00895843FE1F3FE
:101E600080E00895803EC0F3813FD1F7F5CF93FB2A
:101E7000882780F90895CF93DF9300D000D01F9278
:101E8000CDB7DEB70F900F900F900F900F90DF91AE
:101E9000CF910895CF93DF9300D000D000D0CDB77D
:101EA000DEB726960FB6F894DEBF0FBECDBFDF912A
:101EB000CF9108951F93CF93DF93C0916F0116E0E8
:101EC000809170018C1304C0DF91CF911F91089510
:101ED000D0E01C9FF0011D9FF00D1124EF58FE4F24
:101EE0004081518162817381848195810E944A0F72
:101EF0002196C770E5CF4091A1015091A201609158
:101F0000A3017091A4018091A5019091A6010C9468
:101F10004A0F1F93CF93DF938091A601807FD1F466
:101F20008091A3018823B1F080916F01D09170015D
:101F3000B091A101C091A2014091A4015091A501CD
:101F4000A1E0BF3F09F0A0E0BA016095709516E0EE
:101F5000D81304C0DF91CF911F91089521E041155E
:101F6000510521F02A2FCF3F09F020E090E020FD1D
:101F700038C0189FF001199FF00D1124EF58FE4F43
:101F800021812C132EC020812B132BC022812111E3
:101F900028C0238134812417350700F1241B350B19
:101FA000283C3105F0F42091A6012F702061209388
:101FB000A60126E0289FF001299FF00D1124EA5880
:101FC000FE4F80818F708061808381EA91E00E9462
:101FD000C30EDF91CF911F910C945A0F260F371F1C
:101FE000DFCF01968770B4CFAF92BF92CF92DF92CE
:101FF000EF92FF920F931F93CF93DF93CDB7DEB78E
:1020000061970FB6F894DEBF0FBECDBF8C0185E09F
:10201000F801DE011D9601900D928A95E1F7D80135
:102020004C9111965C9111971296EC903091A10110
:102030006091A2018091A4019091A50121E00097F7
:1020400031F06F3F19F421E03F3F09F020E0B22F5B
:10205000B170BB2E20FD80C1F801C380D480A09058
:10206000A301AA2009F427C1C816D906D0F1D601C8
:10207000A81BB90BCD01FF24F394883C910508F00F
:10208000F12C8091A601982F907FFF2009F4CAC0FF
:10209000911187C0FE2C651329C0341327C0E110AD
:1020A00025C08F7080618093A6010E947B0F81EA1A
:1020B00091E00E94C30E8091A601F80185838F2DC7
:1020C00061960FB6F894DEBF0FBECDBFDF91CF9102
:1020D0001F910F91FF90EF90DF90CF90BF90AF9046
:1020E0000895809590958C0D9D1DC5CF81E0CD28DC
:1020F00031F05F3F19F481E04F3F09F080E080FD4F
:1021000024C081E08E25F82FF170DF2E80FF3FC0C4
:1021100080916F012091700136E0821318C04D87C5
:102120005E878D859E850E94B114292F22952F7080
:10213000223008F1243030F59F7009F1D80115964E
:102140009C91907FE1F4FB2CBACF80E0DCCF90E053
:10215000389FF001399FF00D1124EF58FE4F618137
:10216000561306C06081461303C062816E110FC012
:1021700001968770D2CF9F7011F0882321F3805E83
:10218000883008F3C8010E94C30EBD2CDCCFEE20BE
:1021900009F495CF8091A60181608093A601F12C6E
:1021A0008ECF651312C0341310C0E1100EC0F801B9
:1021B0008583C8010E94C30E86E0F801A1EAB1E060
:1021C00001900D928A95E1F741C04D875E878D851C
:1021D0009E850E940C0F882309F4C8C0EE2009F4E4
:1021E000C5C08091A601803270F02091A10130918C
:1021F000A20138872F831986DB86CA868C87CE0199
:1022000007960E94C30E86E0F801A1EAB1E00190B2
:102210000D928A95E1F70E94890F0E947B0FFF249F
:10222000F3944DCF911115C07C2DD98AC88A6E2D9B
:1022300089890E943B0F81EA91E00E94C30E86E0EB
:10224000E1EAF1E0DF011D928A95E9F70E947B0F38
:1022500036CF651312C0341310C0E1100EC0F80160
:102260008583C8010E94C30EE1EAF1E086E0DF0148
:102270001D928A95E9F7FA2C22CF4D875E878D85CE
:102280009E850E940C0F882309F470C0EE2009F48B
:102290006DC08091A601803208F4B5CF2091A101D4
:1022A0003091A2013A8329831B82DD82CC828E8306
:1022B000CE010196A6CFC816D90638F1F601E81B63
:1022C000F90BCF01F12C883C910508F03DC0FE2CA4
:1022D000EE2009F44BC0651326C0341324C080914E
:1022E000A60180FD17C0982F907FA1F0D801159608
:1022F0008C931597903F09F45CCF982F907F905F57
:102300008F70892B15968C9354CF809590958C0D5A
:102310009D1DD8CF86E0F801A1EAB1E001900D92B1
:102320008A95E1F7CCCE4D875E878D859E850E948C
:102330000C0F811168CF8091A60181608093A60166
:10234000C8010E94C30EBBCE7C2DD98AC88A6E2DCF
:1023500089890E943B0F73CFEE2041F04D875E8745
:102360008D859E850E940C0F81114DCFC8010E9462
:10237000C30E55CF1F93CF93DF93CDB7DEB72C9706
:102380000FB6F894DEBF0FBECDBF4F835887698765
:102390007A878B879C87CE0107960E94F40F88234B
:1023A00009F442C09F8188852A853B85232B39F01B
:1023B0008F3F19F481E09F3F19F080E001C081E078
:1023C00080FD08C04F81588569857A858B859C85FD
:1023D0000E944A0F16E080916F0190917001891759
:1023E00009F467C0819FC00111248F589E4F0E943D
:1023F000F40F882309F45DC0E0916F011E9FF00186
:102400001124EF58FE4F4081518162817381848194
:1024100095810E944A0F80916F0190E0019687702C
:10242000992780936F01D7CF86E0FE013796DE01B2
:10243000119601900D928A95E1F79F8188852A85F2
:102440003B85232B39F08F3F19F481E09F3F19F032
:1024500080E001C081E080FDBDCF2091700130E0BF
:10246000C90101968770992740916F014817190695
:1024700099F096E0929FD001939FB00D1124AF5830
:10248000BE4FFE01319601900D929A95E1F780932F
:1024900070010E945A0F9ECF0E94080F1092700187
:1024A00010926F0186E0E1EAF1E0DF011D928A956A
:1024B000E9F72C960FB6F894DEBF0FBECDBFDF91C3
:1024C000CF911F910895EF92FF920F931F93CF9397
:1024D000DF938C01892B81F0F12CEE24E394E80149
:1024E0002196F8018491843770F4843008F05FC03D
:1024F0008130B1F08230A1F1DF91CF911F910F9126
:10250000FF90EF900895853709F44CC008F43DC062
:102510009CE7980F903780F78F770E94430C49C053
:102520000E5F1F4FFE01849190E2980F983060F487
:102530008770FE2D01C0FF0F8A95EAF78F2F0E944A
:10254000B0150E94D71502C00E94670B8F2D8150D5
:1025500030F2EFE9FFE03197F1F700C00000F7CF6C
:102560000E5F1F4FFE01849190E2980F983050F457
:102570008770FE2D01C0FF0F8A95EAF78F2F0E940A
:10258000B615DFCF0E94430CE1CF0E5F1F4FFE0157
:10259000C491C150D8F28FE99FE00197F1F700C0D4
:1025A0000000F7CF0E5F1F4FFE01F490CFCF0E94C7
:1025B000670B8E01CBCF08956093D3017093D40144
:1025C0008093D5019093D6010C94F40E0F931F9332
:1025D0000091D3011091D4012091D5013091D60101
:1025E000DC01CB01802B912BA22BB32B8093D30149
:1025F0009093D401A093D501B093D6011F910F9170
:102600000C94F40E0F931F930091D3011091D401F9
:102610002091D5013091D601DC01CB01802391239B
:10262000A223B3238093D3019093D401A093D50127
:10263000B093D6011F910F910C94F40E0F931F933A
:102640000091D3011091D4012091D5013091D60190
:10265000DC01CB0180279127A227B3278093D301E8
:102660009093D401A093D501B093D6011F910F91FF
:102670000C94F40E1092CF011092D0011092D1015F
:102680001092D2010C94F40E41E050E060E070E052
:1026900004C0440F551F661F771F8A95D2F74093D9
:1026A000CF015093D0016093D1017093D2010C946B
:1026B000F40E41E050E060E070E004C0440F551FAC
:1026C000661F771F8A95D2F78091CF019091D00134
:1026D000A091D101B091D201842B952BA62BB72BC1
:1026E0008093CF019093D001A093D101B093D201F8
:1026F0000C94F40E41E050E060E070E004C0440F40
:10270000551F661F771F8A95D2F7409550956095A3
:1027100070958091CF019091D001A091D101B0919D
:10272000D20184239523A623B7238093CF019093CE
:10273000D001A093D101B093D2010C94F40E41E0EA
:1027400050E060E070E004C0440F551F661F771F23
:102750008A95D2F78091CF019091D001A091D101BB
:10276000B091D20184279527A627B7278093CF0160
:102770009093D001A093D101B093D2010C94F40EA8
:102780000F931F930091CF011091D0012091D1019F
:102790003091D201DC01CB01802B912BA22BB32BEA
:1027A0008093CF019093D001A093D101B093D20137
:1027B0001F910F910C94F40E0F931F930091CF0172
:1027C0001091D0012091D1013091D201DC01CB01D7
:1027D00080239123A223B3238093CF019093D00130
:1027E000A093D101B093D2011F910F910C94F40EDC
:1027F0000F931F930091CF011091D0012091D1012F
:102800003091D201DC01CB0180279127A227B32789
:102810008093CF019093D001A093D101B093D201C6
:102820001F910F910C94F40E08952FE0929F800D4C
:102830001124982F977071E001C0770F9A95EAF7ED
:1028400086958695869525E0829FC001112450E0EB
:1028500040E0A62FB0E0FC01E40FF51FE955FE4F64
:1028600060819D01042E02C0369527950A94E2F7F7
:102870002170219526272723262720834F5F5F4F2E
:102880004530510541F708952FE0929F800D1124A6
:10289000982F977086958695869525E0829FA00152
:1028A000112470E060E080E0FA01E60FF71FE955BF
:1028B000FE4F208130E0092E02C0369527950A94FC
:1028C000E2F721703327062E01C0220F0A94EAF79F
:1028D000822B6F5F7F4F6530710531F70895BF928E
:1028E000CF92DF92EF92FF920F931F93CF93DF93DC
:1028F0008C01C090CF01D090D001E090D101F09038
:10290000D2018091D3019091D401A091D501B091D1
:10291000D601C82AD92AEA2AFB2ACFE1D0E0BC2E68
:10292000D701C6010C2E04C0B695A795979587953B
:102930000A94D2F780FD0EC0219788F7B12C8B2D19
:10294000DF91CF911F910F91FF90EF90DF90CF908B
:10295000BF900895B8018C2F0E94B106019761F3D2
:10296000EECFCF93DF93EC010E946F14BE01DF9195
:10297000CF910C94B1061F93CF93DF93EB0190910D
:102980006E01992331F0CB01DF91CF911F910C940F
:10299000B114882379F0CB010E946F14182F682F8F
:1029A000CE010E941514BE01812FDF91CF911F919E
:1029B0000C94B106CB010E944414182FF4CF8091DF
:1029C000D70185958595859508958091D701877064
:1029D000089598E0899F90011124622B6093D7019C
:1029E0000C9459139091D701809589238093D70136
:1029F000282F277061F4282F082E000C330B921714
:102A0000130629F08595859585950C947A1308957C
:102A10009091D701977081E009F480E0089590913A
:102A200012019923E1F090912D0297FF18C0E82F31
:102A3000E695E695E695EF3139F120910001309168
:102A40000101E20FF32FF11D877021E030E001C09A
:102A5000220F8A95EAF78181822B81830895209144
:102A6000000130910101F90132969FEF40E0519150
:102A7000851751F09F3F19F4511101C0942F4F5FFA
:102A80004E31A9F79F3F09F40895290F311D97FD95
:102A90003A95F90182830895909112019923F1F0FA
:102AA00090912D0297FF1AC0E82FE695E695E695DE
:102AB000EF3129F12091000130910101E20FF32F54
:102AC000F11D282F277081E090E001C0880F2A9522
:102AD000EAF78095918189238183089520910001EF
:102AE00030910101F9013296205E3F4F9191891397
:102AF00003C0DF0111971C92E217F307B9F708959D
:102B000081E090E0E0910001F0910101E80FF91FF0
:102B10001082019680329105A9F708959091FB01EA
:102B2000892B8093FB010895982F90958091FB014C
:102B300089238093FB0108951092FB0108959091E1
:102B4000FA01892B8093FA010895982F909580912E
:102B5000FA0189238093FA0108951092FA010895E9
:102B60009091F901892B8093F9010895982F909500
:102B70008091F90189238093F90108951092F90158
:102B800008958093D80108951092D8010895209156
:102B9000000130910101F9013196205E3F4F80E044
:102BA000919191118F5FE217F307D1F70895E091AA
:102BB0000001F09101018091FB018083E09100010F
:102BC000F091010180819091FA01892B8083E0913D
:102BD0000001F091010180819091F901892B80839E
:102BE0009091D801992361F0E0910001F0910101E9
:102BF0008081892B80830E94C71581111092D80192
:102C000080910001909101010C94380A6DEE7EEFE5
:102C100090E080E00E94222360E082E090E00E9449
:102C2000102360E083E090E00E94102360E084E0E5
:102C300090E00E94102360E085E090E00C94102367
:102C400090E080E00E940A2321E08D3E9E4F09F033
:102C500020E0822F089582E090E00C940223682FF8
:102C600082E090E00C94102383E090E00C94022327
:102C7000682F83E090E00C94102384E090E00C94A3
:102C80000223682F84E090E00C941023809133029B
:102C9000843039F11092FD0188E190E020E40FB614
:102CA000F894A895809360000FBE2093600080E0A8
:102CB0000E94920683B7817F846083BF83B781605F
:102CC00083BF7894889583B78E7F83BF0FB6F894BF
:102CD000A8958091600088618093600010926000E8
:102CE0000FBE089508950895CF930E9472160E9412
:102CF0005C090E947316C0E08C2F0E941D0A892B6C
:102D000031F4CF5FC430C1F780E0CF91089581E006
:102D1000FCCF0E94080F0E942C0A0C9492061F926E
:102D20000F920FB60F9211248F939F93AF93BF937F
:102D30008091FD01811113C08091290290912A0296
:102D4000A0912B02B0912C024196A11DB11D809340
:102D5000290290932A02A0932B02B0932C02BF91D8
:102D6000AF919F918F910F900FBE0F901F9018956C
:102D700082E084BD93E095BD9AEF97BD80936E008D
:102D800008952FB7F8948091290290912A02A0917A
:102D90002B02B0912C022FBF0895CF92DF92EF92B9
:102DA000FF920F931F932FB7F894409129025091EF
:102DB0002A0260912B0270912C022FBF6A017B01C5
:102DC000EE24FF248C0130E020E0C016D106E2069C
:102DD000F30650F0481B590BCA011F910F91FF9049
:102DE000EF90DF90CF90089541505109F3CF1F929B
:102DF0000F920FB60F9211248F939F93AF93BF93AF
:102E00008091290290912A02A0912B02B0912C026C
:102E10000196A11DB11D8093290290932A02A093CF
:102E20002B02B0932C02BF91AF919F918F910F9085
:102E30000FBE0F901F9018950E94A81EF8942FEFB8
:102E400087EA91E6215080409040E1F700C0000001
:102E500087E090EBDC0180933C0290933D02A093CD
:102E60003E02B0933F0288E19CE00FB6F894A8952B
:102E7000809360000FBE90936000FFCFAF92BF922F
:102E8000CF92DF92EF92FF920F931F93CF93C0E008
:102E9000CC24C394D12CE82EF12C8C2F0E941D0A37
:102EA0005C0110E000E0C601002E02C0880F991FEF
:102EB0000A94E2F78A219B21892B99F40F5F1F4F17
:102EC0000F30110581F7CF5FC43039F780E0CF9123
:102ED0001F910F91FF90EF90DF90CF90BF90AF9038
:102EE0000895602F7C2F80E00E949506E816F90671
:102EF00029F781E0ECCFCF93C82F8CE20E943E17D8
:102F0000882321F08C2FCF910C943E1780E0CF9135
:102F10000895CF930E942016811102C00E940616C8
:102F2000C5E608C00E945C098FE39CE90197F1F7B0
:102F300000C00000C150B1F789E20E947B178111E7
:102F4000EFC08AE20E947B1781110E94061685E07D
:102F50000E947B1781110E941C170E942B168093E0
:102F6000FC0187E00E947B17882371F08BE10E94AF
:102F70007B17882309F4B1C09091FC01892F8D7FC4
:102F800091FF82608093FC018091FC010E942F16CA
:102F90000E943D1690E090932E0280932D0280EEC9
:102FA0000E947B17882341F090912D02892F8E7FFC
:102FB00090FF816080932D0289E30E947B17882314
:102FC00041F090912D02892F8D7F91FF8260809337
:102FD0002D0282EE0E947B17882341F090912D02F2
:102FE000892F8B7F92FF846080932D0286EE0E9452
:102FF0007B17882341F090912D02892F877F93FFC3
:10300000886080932D0283EE0E947B17882341F015
:1030100090912D02892F8F7E94FF806180932D02E5
:1030200085E30E947B17882341F090912D02892F20
:103030008F7D95FF806280932D0281E30E947B1734
:10304000882341F090912D02892F8F7B96FF806419
:1030500080932D0281E10E947B17882341F090919B
:103060002D02892F97FB87F9805880932D0280913C
:103070002D020E94411687E20E947B17C82F8EE125
:103080000E947B178111C2608FE10E947B17811122
:10309000C46080E20E947B178111C86081E20E94B7
:1030A0007B178111C06182E20E947B178111C0628F
:1030B00083E20E947B178111C06484E20E947B1727
:1030C000882341F1C0688C2F0E9438166C2F70E065
:1030D00090E080E0CF910C94DC128EE00E947B1790
:1030E000882339F09091FC01892F8B7F92FF8460B7
:1030F00049CF80E10E947B179091FC01882329F041
:10310000892F877F93FF88603DCF892F8E7F90FF27
:10311000816038CFC111D7CF0E943416682FD7CF26
:10312000CF9108958091000280FF12C06091050147
:1031300085E0689FB0011124759567957595679531
:1031400060387105A8F561157105A1F1862F089504
:1031500081FF09C06091050185E0689FB0011124DD
:1031600075956795EDCF82FF07C06091050185E0F9
:10317000689FB0011124E4CF209101022223A9F01D
:10318000909104016091050185E0689FB0011124D0
:103190002917B0F6269FA001279F500D1124692FF3
:1031A00070E0CA010E94D422CBCF65E070E0CECFA0
:1031B0008FE7089581E008958091000280FF0CC0A0
:1031C0006091030170E07595679575956795611538
:1031D000710549F1862F089581FF06C060910301B2
:1031E00070E075956795F3CF6091030182FD0BC088
:1031F000909101029923A1F0609102018091030155
:10320000961738F0682F70E06038710500F38FE78B
:103210000895899FC001112470E00E94D422F4CF48
:1032200061E070E0D7CF81E00895803F31F40E94E3
:1032300092188195809304020895813F19F40E94A9
:103240009218F8CF823F31F40E94921881958093B2
:1032500003020895833F19F40E949218F8CF893F22
:1032600029F40E94DC188093050208958A3F21F416
:103270000E94DC188195F7CF8B3F31F40E94DC1857
:1032800081958093060208958C3F19F40E94DC1802
:10329000F8CF843F31F48091020281608093020272
:1032A0000895853F21F4809102028260F7CF863F26
:1032B00021F4809102028460F1CF873F21F4809154
:1032C00002028860EBCF883F21F480910202806186
:1032D000E5CF8D3F31F48091000281608093000240
:1032E00008958E3F21F4809100028260F7CF8F3FD6
:1032F000B9F7809100028460F1CF803FC1F48091E2
:10330000040287FD109204028091030281110EC015
:103310008091040281110AC080910502811106C0CA
:1033200080910602811102C0109201020895813F2E
:1033300029F48091040218162CF3E6CF9091030231
:10334000823F29F497FFE0CF10920302DDCF833F45
:1033500019F41916CCF3D8CF893F39F480910502BE
:10336000181694F610920502CFCF8A3F29F4809167
:10337000050287FFC9CFF6CF8B3F39F48091060253
:1033800087FFC2CF10920602BFCF8C3F29F48091F5
:1033900006021816BCF3B8CF843F31F480910202C4
:1033A0008E7F80930202B0CF853F21F4809102028C
:1033B0008D7FF7CF863F21F4809102028B7FF1CF82
:1033C000873F21F480910202877FEBCF883F21F471
:1033D000809102028F7EE5CF8D3F31F48091000213
:1033E0008E7F8093000290CF8E3F21F48091000267
:1033F0008D7FF7CF8F3F09F087CF809100028B7FC1
:10340000F0CF82E092E00E94430A0E94C11690939E
:10341000FF018093FE0108951F93CF93DF93809166
:10342000FE019091FF010E94CD16AC019091010226
:103430002091060130E0911106C0209107018AE039
:10344000289F900111244217530780F080910302B6
:10345000C091040210910502D091060281110AC0A8
:10346000C11178C0111176C0D11174C0DF91CF9114
:103470001F9108959F3F19F09F5F909301021816C6
:1034800024F40E949218809303028091030287FF24
:1034900005C00E9492188195809303021C1624F4A3
:1034A0000E949218809304028091040287FF05C055
:1034B0000E94921881958093040260910302662312
:1034C00031F1C0910402CC2311F1062E000C770BD0
:1034D000880B990B0E94DB2123E333E343E35FE393
:1034E0000E943F220E94A321609303026C2FCC0F05
:1034F000770B880B990B0E94DB2123E333E343E333
:103500005FE30E943F220E94A321609304021116F0
:1035100024F40E94DC18809305028091050287FF45
:1035200005C00E94DC188195809305021D1624F4C5
:103530000E94DC18809306028091060287FF05C076
:103540000E94DC18819580930602DF91CF911F9134
:103550000C94011A9F3F09F08FCFA0CF85E0E2E0E5
:10356000F2E0DF011D928A95E9F7109201021092B4
:1035700000020895809127020895CF93DF9300D031
:103580001F92CDB7DEB79C0180913302843019F5CC
:1035900093E099833B832A839093E9008FEF909186
:1035A000E800815095FD06C095ED9A95F1F7000071
:1035B0008111F5CF8091E80085FF0DC050E040E01B
:1035C00063E070E0CE0101960E94181D8091E80032
:1035D0008E778093E8000F900F900F90DF91CF913E
:1035E0000895CF93DF9300D01F92CDB7DEB720911F
:1035F0003302243031F522E02983805891099B83DE
:103600008A8383E08093E9008FEF9091E8008150F6
:1036100095FD06C095ED9A95F1F700008111F5CF63
:103620008091E80085FF0DC050E040E063E070E06D
:10363000CE0101960E94181D8091E8008E7780933C
:10364000E8000F900F900F90DF91CF9108959C01AB
:10365000809133028430F9F482E08093E9009FEF97
:103660008091E800915085FD06C085ED8A95F1F7BF
:1036700000009111F5CF8091E80085FF0CC050E06B
:1036800040E065E070E0C9010E94181D8091E800EB
:103690008E778093E8000895CF93DF93EC018091BB
:1036A00033028430F1F4909112019923E9F0909162
:1036B0002D0297FF19C08093E9008FEF9091E800E9
:1036C000815095FD06C095E19A95F1F700008111B2
:1036D000F5CF8091E80050E040E060E270E085FDC9
:1036E0001AC0DF91CF91089581E08093E9008FEFB8
:1036F0009091E800815095FD06C095ED9A95F1F7FF
:1037000000008111F5CF8091E80085FFEACF50E0FD
:1037100040E068E070E0CE010E94181D8091E80052
:103720008E778093E80080E2FE01A7E0B2E001908E
:103730000D928A95E1F7D5CF80913202811109C0AF
:103740000E94A81E0E94051F8091E2008460809361
:10375000E2000895109232020895089508950C949D
:10376000891642E061EC81E00E94261E42E061EC95
:1037700082E00E94261E42E061EC83E00E94261E49
:1037800042E261EC84E00C94261E80913502833085
:1037900009F455C030F4813071F1823009F491C0E0
:1037A00008958A3009F47DC08B3009F463C08930F4
:1037B00009F044C080913402813209F03FC0809109
:1037C000380290913902009711F00397B9F5809172
:1037D000E800877F8093E8008091E80082FF2AC09C
:1037E0008091F100809327028091E8008B7780938D
:1037F000E8000C945A1E80913402813AF9F48091C9
:10380000E800877F8093E800809138029091390228
:10381000892B61F460E287E092E070E00E94671D0E
:103820008091E8008B778093E800089560E090E055
:1038300080E0F3CF809133028111CECF0895809143
:103840003402813AD9F78091380290913902892B5C
:10385000A9F78091E800877F8093E8008091E800D5
:1038600080FFFCCF809112018093F1008091E800ED
:103870008E77BDCF80913402813201F7809138027A
:1038800090913902892BD1F68091E800877F80934F
:10389000E8000E945A1E80913602809312010C9417
:1038A000080F80913402813249F68091E800877FC9
:1038B0008093E8000E945A1E80913702809328026C
:1038C000089580913402813A09F0B8CF8091E800E0
:1038D000877F8093E8008091E80080FFFCCF809193
:1038E0002802C2CF84B7877F84BF0FB6F894A8950B
:1038F00080916000886180936000109260000FBE2C
:1039000080E880936100109261000E947B0A0E940F
:10391000A81E0E94051F8091E20084608093E2004F
:1039200078940E9487210E947D0A88E091E00E949D
:10393000270A80913302853019F00E94830AF9CF5B
:103940000E94461680913102882399F30E947416D2
:10395000882379F30E94021DECCF292F33272330CF
:10396000310579F158F421303105F1F0223031057B
:1039700019F190E080E030E020E01AC021323105FA
:1039800099F122323105A9F7643098F770E0FB0114
:10399000EE0FFF1FE65DFE4F208131816A5D7E4F95
:1039A000FB01808190E004C082E190E029EC38E0E6
:1039B000FA013183208308958DE690E02CE538E00C
:1039C000F7CF99278130910561F028F0029789F6A9
:1039D000ECE2F8E002C0E8E5F8E0849190E09F01B5
:1039E000E7CFE0E4F8E0F9CF643008F0C2CFE62F8B
:1039F000F0E0EE0FFF1FEE5CFE4F2081318189E089
:103A000090E0D6CF80E189BD82E189BD09B400FE96
:103A1000FDCF8091D8008F7D8093D8008091E00009
:103A200082608093E0008091E00081FDFCCF0895EA
:103A3000AF92BF92CF92DF92FF920F931F93CF93DB
:103A4000DF936C01EB018A010E94791EF82E81112F
:103A500023C00115110539F0F80180819181C81B3F
:103A6000D90BC80ED91EB12CA12C2097A9F080919A
:103A7000E80085FD22C08091E8008E778093E80001
:103A800001151105A1F0F80180819181A80EB91EE0
:103A9000B182A08285E0F82E8F2DDF91CF911F910A
:103AA0000F91FF90DF90CF90BF90AF9008950E944C
:103AB000791E8823D1F2F82EEFCFF60181916F01A4
:103AC0008093F1002197FFEFAF1ABF0ACECFFC0120
:103AD00080913A0290913B0286179707A0F06115FA
:103AE000710529F49091E8009E779093E80090E0AA
:103AF0006115710551F4911108C08091E80082FFB1
:103B000035C080E00895BC01F2CF80913302882354
:103B1000C9F18530C9F18091E80083FD31C0809101
:103B2000E80082FDEACF8091E80080FFE1CF20919C
:103B3000F3008091F200322F282F6115710519F0E2
:103B40002830310558F091E02830310509F090E037
:103B50002091E8002E772093E800CACF81918093CE
:103B6000F100615071092F5F3F4FE7CF8091330221
:103B7000882341F0853041F08091E80083FFBDCF7C
:103B800081E0089582E0089583E00895FC0180912A
:103B90003A0290913B0286179707A0F061157105D4
:103BA00029F48091E8008E778093E80090E0611519
:103BB000710551F4911108C08091E80082FF36C070
:103BC00080E00895BC01F2CF809133028823D1F1C7
:103BD0008530D1F18091E80083FD32C08091E8000A
:103BE00082FDEACF8091E80080FFE1CF2091F300D1
:103BF0008091F200322F282F6115710519F02830BD
:103C0000310558F091E02830310509F090E08091BD
:103C1000E8008E778093E800CACF84918093F1000A
:103C20003196615071092F5F3F4FE6CF809133028B
:103C3000882341F0853041F08091E80083FFBCCFBC
:103C400081E0089582E0089583E00895982F9730E9
:103C500028F08F708093E90081E008959093E90047
:103C6000242F762F50E0981731F07091EC002091BE
:103C7000ED005091F00021FD02C09F5FE8CF309130
:103C8000EB003E7F3093EB003091ED003D7F3093B1
:103C9000ED003091EB0031603093EB007093EC005D
:103CA0002093ED005093F0002091EE0027FDE5CF2A
:103CB00080E008958091340287FF13C08091E8006E
:103CC00082FF06C08091E8008B778093E80004C0F3
:103CD000809133028111F2CF0895809133028823BD
:103CE000D9F38091E80080FFF8CF8091E8008E77CB
:103CF000ECCF2091E4003091E50085E69091EC0056
:103D000090FF06C09091E80090FF06C080E0089503
:103D10009091E80092FDFACF90913302992391F0AF
:103D2000953091F09091EB0095FD10C04091E4002A
:103D30005091E5002417350709F381509A01F1F6F7
:103D400084E0089582E0089583E0089581E0089575
:103D50000E94161F0E941E1FE0EEF0E0808181602D
:103D60008083E8EDF0E080818F77808319BCA7ED38
:103D7000B0E08C918E7F8C9380818F7E80831092B7
:103D8000320208950F931F93CF93DF930E94161F63
:103D90000E941E1FC8EDD0E088818F7788838881BC
:103DA0008068888388818F7D888319BC1092330254
:103DB00010922F02109231021092300200EE10E0A9
:103DC000F80180818B7F808388818160888342E0D5
:103DD00060E080E00E94261EE1EEF0E080818E7FB0
:103DE0008083E2EEF0E08081816080838081886062
:103DF0008083F80180818E7F8083888180618883C1
:103E0000DF91CF911F910F910895E8EDF0E080814F
:103E10008F7E8083E7EDF0E080818160808384E0A5
:103E200082BF81E0809332020C94C21EE8EDF0E084
:103E300080818E7F80831092E20008951092DA00D4
:103E40001092E10008951F920F920FB60F92112465
:103E50002F933F934F935F936F937F938F939F9392
:103E6000AF93BF93EF93FF938091E10082FF0BC06C
:103E70008091E20082FF07C08091E1008B7F8093F8
:103E8000E1000E9486218091DA0080FF19C08091B4
:103E9000D80080FF15C08091DA008E7F8093DA0011
:103EA0008091D90080FF94C080E189BD82E189BD05
:103EB00009B400FEFDCF81E0809333020E949C1B79
:103EC0008091E10080FF19C08091E20080FF15C061
:103ED0008091E2008E7F8093E2008091E200806119
:103EE0008093E2008091D80080628093D80019BC52
:103EF00085E0809333020E94AE1B8091E10084FF35
:103F000029C08091E20084FF25C080E189BD82E163
:103F100089BD09B400FEFDCF8091D8008F7D8093CC
:103F2000D8008091E1008F7E8093E1008091E200D3
:103F30008F7E8093E2008091E20081608093E200B6
:103F400080912F02882309F449C084E080933302D2
:103F50000E94AF1B8091E10083FF29C08091E200A5
:103F600083FF25C08091E100877F8093E10082E09C
:103F70008093330210922F028091E1008E7F809314
:103F8000E1008091E2008E7F8093E2008091E20068
:103F900080618093E20042E060E080E00E94261EA3
:103FA0008091F00088608093F0000E94AD1BFF912B
:103FB000EF91BF91AF919F918F917F916F915F91A1
:103FC0004F913F912F910F900FBE0F901F9018951A
:103FD00019BC109233020E94AA1B72CF8091E30099
:103FE00087FD02C081E0B2CF83E0B0CF1F920F9275
:103FF0000FB60F9211242F933F934F935F936F93BC
:104000007F938F939F93AF93BF93CF93EF93FF9340
:10401000C091E900CF708091EC001092E90080918E
:10402000F000877F8093F00078940E9432201092F5
:10403000E9008091F00088608093F000C093E9006F
:10404000FF91EF91CF91BF91AF919F918F917F9110
:104050006F915F914F913F912F910F900FBE0F90F5
:104060001F9018951F93CF93DF93CDB7DEB7AA9714
:104070000FB6F894DEBF0FBECDBFE4E3F2E080914F
:10408000F100819322E0EC33F207C9F70E94C51BCF
:104090008091E80083FF42C0809134029091350204
:1040A0009A3008F03BC0E92FF0E0E75AFF4D0C943E
:1040B000E822632087208E2087208E20E2200421A2
:1040C0008E2059216621803879F0823839F5809127
:1040D00038028F708093E9008091EB0085FB882780
:1040E00080F91092E90006C080913002909131026F
:1040F000911182609091E800977F9093E8008093FF
:10410000F1001092F1008091E8008E772DC0282FE9
:104110002D7F21F48823D1F0823059F18091E8007D
:1041200083FF0AC08091E800877F8093E800809138
:10413000EB0080628093EB00AA960FB6F894DEBF86
:104140000FBECDBFDF91CF911F91089580913602B0
:10415000813021F7933009F080E080933102109292
:10416000E9008091E800877F8093E8000E945A1E52
:10417000D5CF809136028111F2CF809138028F70B5
:1041800069F28093E9002091EB0020FFE8CF9330A3
:1041900031F48091EB0080628093EB00E0CF90914E
:1041A000EB0090619093EB0021E030E001C0220F22
:1041B0008A95EAF72093EA001092EA008091EB00DA
:1041C0008860EACF8111AACF109136021F778091C3
:1041D000E3008078812B8093E3008091E800877F63
:1041E0008093E8000E945A1E8091E80080FFFCCF77
:1041F0008091E30080688093E30083E0111101C0A7
:1042000082E0809333028ACF8058823008F086CFD4
:1042100080913602909137028C3D23E09207A1F500
:1042200083E08A838AE289834FB7F894DE0113968C
:1042300020E03EE051E2E32FF0E050935700E4919C
:1042400020FF03C0E295EF703F5FEF708E2F90E08C
:10425000EA30C0F0C7968D939D932F5F243159F7B4
:104260004FBF8091E800877F8093E8006AE270E0AA
:10427000CE0101960E94671D8091E8008B778093A4
:10428000E8004CCFC096E7CFAE014F5F5F4F609123
:1042900038020E94AD1CBC01892B09F43FCF9091DC
:1042A000E800977F9093E80089819A810E94C61D5B
:1042B000E3CF803809F032CF8091E800877F809388
:1042C000E80080912F028093F1001DCF811126CF4D
:1042D00090913602923008F021CF8091E800877FDC
:1042E0008093E80090932F020E945A1E80912F0223
:1042F000882331F084E0809333020E94B11B0ECFFB
:104300008091E30087FDF6CF81E0F5CF0895CF934C
:1043100080913302882399F0C091E900CF70809199
:10432000EC0080FD0EC080E0C82B1092E900809167
:10433000E80083FD0E943220CF70C093E900CF9146
:10434000089580E8F1CF0E94AA216894B1110C94DD
:10435000392208950E941E2288F09F5798F0B92FA5
:104360009927B751B0F0E1F0660F771F881F991FAA
:104370001AF0BA95C9F714C0B13091F00E943822F2
:10438000B1E008950C943822672F782F8827B85F02
:1043900039F0B93FCCF3869577956795B395D9F702
:1043A0003EF490958095709561957F4F8F4F9F4F0C
:1043B0000895E89409C097FB3EF490958095709518
:1043C00061957F4F8F4F9F4F9923A9F0F92F96E961
:1043D000BB279395F695879577956795B795F111D6
:1043E000F8CFFAF4BB0F11F460FF1BC06F5F7F4F73
:1043F0008F4F9F4F16C0882311F096E911C0772385
:1044000021F09EE8872F762F05C0662371F096E88D
:10441000862F70E060E02AF09A95660F771F881F5C
:10442000DAF7880F9695879597F9089557FD905874
:10443000440F551F59F05F3F71F04795880F97FB68
:10444000991F61F09F3F79F0879508951216130622
:104450001406551FF2CF4695F1DF08C01616170651
:104460001806991FF1CF8695710561050894089586
:10447000E894BB2766277727CB0197F908950E9418
:1044800052220C94C3220E94B52238F00E94BC2212
:1044900020F0952311F00C94AC220C94B22211243C
:1044A0000C9439220E94162270F3959FC1F3950F48
:1044B00050E0551F629FF001729FBB27F00DB11DA8
:1044C000639FAA27F00DB11DAA1F649F6627B00D38
:1044D000A11D661F829F2227B00DA11D621F739F21
:1044E000B00DA11D621F839FA00D611D221F749F2F
:1044F0003327A00D611D231F849F600D211D822F76
:10450000762F6A2F11249F5750409AF0F1F088239C
:104510004AF0EE0FFF1FBB1F661F771F881F9150C9
:104520005040A9F79E3F510580F00C94AC220C94AA
:1045300039225F3FE4F3983ED4F3869577956795EB
:10454000B795F795E7959F5FC1F7FE2B880F911DF3
:104550009695879597F9089597F99F6780E870E099
:1045600060E008959FEF80EC089500240A941616E9
:10457000170618060906089500240A941216130651
:10458000140605060895092E0394000C11F48823DF
:1045900052F0BB0F40F4BF2B11F460FF04C06F5FFB
:1045A0007F4F8F4F9F4F089597FB072E16F400946F
:1045B00007D077FD09D00E94EE2207FC05D03EF41B
:1045C000909581959F4F0895709561957F4F0895BF
:1045D000EE0FFF1F0590F491E02D0994AA1BBB1B61
:1045E00051E107C0AA1FBB1FA617B70710F0A61BF3
:1045F000B70B881F991F5A95A9F780959095BC0114
:10460000CD010895F999FECF92BD81BDF89A992701
:1046100080B50895A8E1B0E042E050E00C942A2370
:10462000262FF999FECF92BD81BDF89A019700B46B
:10463000021639F01FBA20BD0FB6F894FA9AF99A0B
:104640000FBE08950196272F0E9411230C9410236A
:10465000DC01CB01FC01F999FECF06C0F2BDE1BD42
:10466000F89A319600B40D9241505040B8F7089531
:04467000F894FFCFEC
:10467400D9012808140A321EBA1A4C1B271BF11A36
:10468400BD1A01F5F6F76766363534969795939219
:104694009190F1F0C6F4404D363997094A0914094E
:0A46A400DB086E088708A008B908BB
:00000001FF
